{
  "_format": "hh-sol-artifact-1",
  "contractName": "Byoa",
  "sourceName": "contracts/byoa.sol",
  "abi": [
    {
      "inputs": [],
      "stateMutability": "nonpayable",
      "type": "constructor"
    },
    {
      "anonymous": false,
      "inputs": [
        {
          "indexed": true,
          "internalType": "address",
          "name": "owner",
          "type": "address"
        },
        {
          "indexed": true,
          "internalType": "address",
          "name": "approved",
          "type": "address"
        },
        {
          "indexed": true,
          "internalType": "uint256",
          "name": "tokenId",
          "type": "uint256"
        }
      ],
      "name": "Approval",
      "type": "event"
    },
    {
      "anonymous": false,
      "inputs": [
        {
          "indexed": true,
          "internalType": "address",
          "name": "owner",
          "type": "address"
        },
        {
          "indexed": true,
          "internalType": "address",
          "name": "operator",
          "type": "address"
        },
        {
          "indexed": false,
          "internalType": "bool",
          "name": "approved",
          "type": "bool"
        }
      ],
      "name": "ApprovalForAll",
      "type": "event"
    },
    {
      "anonymous": false,
      "inputs": [
        {
          "indexed": true,
          "internalType": "bytes32",
          "name": "role",
          "type": "bytes32"
        },
        {
          "indexed": true,
          "internalType": "bytes32",
          "name": "previousAdminRole",
          "type": "bytes32"
        },
        {
          "indexed": true,
          "internalType": "bytes32",
          "name": "newAdminRole",
          "type": "bytes32"
        }
      ],
      "name": "RoleAdminChanged",
      "type": "event"
    },
    {
      "anonymous": false,
      "inputs": [
        {
          "indexed": true,
          "internalType": "bytes32",
          "name": "role",
          "type": "bytes32"
        },
        {
          "indexed": true,
          "internalType": "address",
          "name": "account",
          "type": "address"
        },
        {
          "indexed": true,
          "internalType": "address",
          "name": "sender",
          "type": "address"
        }
      ],
      "name": "RoleGranted",
      "type": "event"
    },
    {
      "anonymous": false,
      "inputs": [
        {
          "indexed": true,
          "internalType": "bytes32",
          "name": "role",
          "type": "bytes32"
        },
        {
          "indexed": true,
          "internalType": "address",
          "name": "account",
          "type": "address"
        },
        {
          "indexed": true,
          "internalType": "address",
          "name": "sender",
          "type": "address"
        }
      ],
      "name": "RoleRevoked",
      "type": "event"
    },
    {
      "anonymous": false,
      "inputs": [
        {
          "indexed": true,
          "internalType": "address",
          "name": "from",
          "type": "address"
        },
        {
          "indexed": true,
          "internalType": "address",
          "name": "to",
          "type": "address"
        },
        {
          "indexed": true,
          "internalType": "uint256",
          "name": "tokenId",
          "type": "uint256"
        }
      ],
      "name": "Transfer",
      "type": "event"
    },
    {
      "inputs": [],
      "name": "DEFAULT_ADMIN_ROLE",
      "outputs": [
        {
          "internalType": "bytes32",
          "name": "",
          "type": "bytes32"
        }
      ],
      "stateMutability": "view",
      "type": "function"
    },
    {
      "inputs": [],
      "name": "DEVELOPER_ROLE",
      "outputs": [
        {
          "internalType": "bytes32",
          "name": "",
          "type": "bytes32"
        }
      ],
      "stateMutability": "view",
      "type": "function"
    },
    {
      "inputs": [
        {
          "internalType": "address",
          "name": "to",
          "type": "address"
        },
        {
          "internalType": "uint256",
          "name": "tokenId",
          "type": "uint256"
        }
      ],
      "name": "approve",
      "outputs": [],
      "stateMutability": "nonpayable",
      "type": "function"
    },
    {
      "inputs": [
        {
          "internalType": "address",
          "name": "owner",
          "type": "address"
        }
      ],
      "name": "balanceOf",
      "outputs": [
        {
          "internalType": "uint256",
          "name": "",
          "type": "uint256"
        }
      ],
      "stateMutability": "view",
      "type": "function"
    },
    {
      "inputs": [
        {
          "internalType": "string",
          "name": "name",
          "type": "string"
        },
        {
          "internalType": "string",
          "name": "description",
          "type": "string"
        },
        {
          "internalType": "uint256",
          "name": "price",
          "type": "uint256"
        },
        {
          "internalType": "string",
          "name": "_tokenURI",
          "type": "string"
        }
      ],
      "name": "createApp",
      "outputs": [
        {
          "internalType": "uint256",
          "name": "",
          "type": "uint256"
        }
      ],
      "stateMutability": "nonpayable",
      "type": "function"
    },
    {
      "inputs": [
        {
          "internalType": "uint256",
          "name": "appId",
          "type": "uint256"
        }
      ],
      "name": "getAppDetailsById",
      "outputs": [
        {
          "internalType": "string",
          "name": "name",
          "type": "string"
        },
        {
          "internalType": "string",
          "name": "description",
          "type": "string"
        },
        {
          "internalType": "string",
          "name": "_tokenURI",
          "type": "string"
        },
        {
          "internalType": "address",
          "name": "owner",
          "type": "address"
        },
        {
          "internalType": "uint256",
          "name": "price",
          "type": "uint256"
        }
      ],
      "stateMutability": "view",
      "type": "function"
    },
    {
      "inputs": [
        {
          "internalType": "uint256",
          "name": "_tokenId",
          "type": "uint256"
        }
      ],
      "name": "getAppIdByTokenId",
      "outputs": [
        {
          "internalType": "uint256",
          "name": "",
          "type": "uint256"
        }
      ],
      "stateMutability": "view",
      "type": "function"
    },
    {
      "inputs": [],
      "name": "getAppIds",
      "outputs": [
        {
          "internalType": "uint256[]",
          "name": "",
          "type": "uint256[]"
        }
      ],
      "stateMutability": "view",
      "type": "function"
    },
    {
      "inputs": [
        {
          "internalType": "uint256",
          "name": "tokenId",
          "type": "uint256"
        }
      ],
      "name": "getApproved",
      "outputs": [
        {
          "internalType": "address",
          "name": "",
          "type": "address"
        }
      ],
      "stateMutability": "view",
      "type": "function"
    },
    {
      "inputs": [
        {
          "internalType": "bytes32",
          "name": "role",
          "type": "bytes32"
        }
      ],
      "name": "getRoleAdmin",
      "outputs": [
        {
          "internalType": "bytes32",
          "name": "",
          "type": "bytes32"
        }
      ],
      "stateMutability": "view",
      "type": "function"
    },
    {
      "inputs": [
        {
          "internalType": "bytes32",
          "name": "role",
          "type": "bytes32"
        },
        {
          "internalType": "address",
          "name": "account",
          "type": "address"
        }
      ],
      "name": "grantRole",
      "outputs": [],
      "stateMutability": "nonpayable",
      "type": "function"
    },
    {
      "inputs": [
        {
          "internalType": "bytes32",
          "name": "role",
          "type": "bytes32"
        },
        {
          "internalType": "address",
          "name": "account",
          "type": "address"
        }
      ],
      "name": "hasRole",
      "outputs": [
        {
          "internalType": "bool",
          "name": "",
          "type": "bool"
        }
      ],
      "stateMutability": "view",
      "type": "function"
    },
    {
      "inputs": [
        {
          "internalType": "address",
          "name": "owner",
          "type": "address"
        },
        {
          "internalType": "address",
          "name": "operator",
          "type": "address"
        }
      ],
      "name": "isApprovedForAll",
      "outputs": [
        {
          "internalType": "bool",
          "name": "",
          "type": "bool"
        }
      ],
      "stateMutability": "view",
      "type": "function"
    },
    {
      "inputs": [
        {
          "internalType": "uint256",
          "name": "_appId",
          "type": "uint256"
        }
      ],
      "name": "mint",
      "outputs": [],
      "stateMutability": "payable",
      "type": "function"
    },
    {
      "inputs": [],
      "name": "name",
      "outputs": [
        {
          "internalType": "string",
          "name": "",
          "type": "string"
        }
      ],
      "stateMutability": "view",
      "type": "function"
    },
    {
      "inputs": [
        {
          "internalType": "uint256",
          "name": "tokenId",
          "type": "uint256"
        }
      ],
      "name": "ownerOf",
      "outputs": [
        {
          "internalType": "address",
          "name": "",
          "type": "address"
        }
      ],
      "stateMutability": "view",
      "type": "function"
    },
    {
      "inputs": [
        {
          "internalType": "bytes32",
          "name": "role",
          "type": "bytes32"
        },
        {
          "internalType": "address",
          "name": "account",
          "type": "address"
        }
      ],
      "name": "renounceRole",
      "outputs": [],
      "stateMutability": "nonpayable",
      "type": "function"
    },
    {
      "inputs": [
        {
          "internalType": "bytes32",
          "name": "role",
          "type": "bytes32"
        },
        {
          "internalType": "address",
          "name": "account",
          "type": "address"
        }
      ],
      "name": "revokeRole",
      "outputs": [],
      "stateMutability": "nonpayable",
      "type": "function"
    },
    {
      "inputs": [
        {
          "internalType": "address",
          "name": "from",
          "type": "address"
        },
        {
          "internalType": "address",
          "name": "to",
          "type": "address"
        },
        {
          "internalType": "uint256",
          "name": "tokenId",
          "type": "uint256"
        }
      ],
      "name": "safeTransferFrom",
      "outputs": [],
      "stateMutability": "nonpayable",
      "type": "function"
    },
    {
      "inputs": [
        {
          "internalType": "address",
          "name": "from",
          "type": "address"
        },
        {
          "internalType": "address",
          "name": "to",
          "type": "address"
        },
        {
          "internalType": "uint256",
          "name": "tokenId",
          "type": "uint256"
        },
        {
          "internalType": "bytes",
          "name": "_data",
          "type": "bytes"
        }
      ],
      "name": "safeTransferFrom",
      "outputs": [],
      "stateMutability": "nonpayable",
      "type": "function"
    },
    {
      "inputs": [
        {
          "internalType": "address",
          "name": "operator",
          "type": "address"
        },
        {
          "internalType": "bool",
          "name": "approved",
          "type": "bool"
        }
      ],
      "name": "setApprovalForAll",
      "outputs": [],
      "stateMutability": "nonpayable",
      "type": "function"
    },
    {
      "inputs": [
        {
          "internalType": "bytes4",
          "name": "interfaceId",
          "type": "bytes4"
        }
      ],
      "name": "supportsInterface",
      "outputs": [
        {
          "internalType": "bool",
          "name": "",
          "type": "bool"
        }
      ],
      "stateMutability": "view",
      "type": "function"
    },
    {
      "inputs": [],
      "name": "symbol",
      "outputs": [
        {
          "internalType": "string",
          "name": "",
          "type": "string"
        }
      ],
      "stateMutability": "view",
      "type": "function"
    },
    {
      "inputs": [
        {
          "internalType": "uint256",
          "name": "index",
          "type": "uint256"
        }
      ],
      "name": "tokenByIndex",
      "outputs": [
        {
          "internalType": "uint256",
          "name": "",
          "type": "uint256"
        }
      ],
      "stateMutability": "view",
      "type": "function"
    },
    {
      "inputs": [
        {
          "internalType": "address",
          "name": "owner",
          "type": "address"
        },
        {
          "internalType": "uint256",
          "name": "index",
          "type": "uint256"
        }
      ],
      "name": "tokenOfOwnerByIndex",
      "outputs": [
        {
          "internalType": "uint256",
          "name": "",
          "type": "uint256"
        }
      ],
      "stateMutability": "view",
      "type": "function"
    },
    {
      "inputs": [
        {
          "internalType": "uint256",
          "name": "tokenId",
          "type": "uint256"
        }
      ],
      "name": "tokenURI",
      "outputs": [
        {
          "internalType": "string",
          "name": "",
          "type": "string"
        }
      ],
      "stateMutability": "view",
      "type": "function"
    },
    {
      "inputs": [],
      "name": "totalSupply",
      "outputs": [
        {
          "internalType": "uint256",
          "name": "",
          "type": "uint256"
        }
      ],
      "stateMutability": "view",
      "type": "function"
    },
    {
      "inputs": [
        {
          "internalType": "address",
          "name": "from",
          "type": "address"
        },
        {
          "internalType": "address",
          "name": "to",
          "type": "address"
        },
        {
          "internalType": "uint256",
          "name": "tokenId",
          "type": "uint256"
        }
      ],
      "name": "transferFrom",
      "outputs": [],
      "stateMutability": "nonpayable",
      "type": "function"
    },
    {
      "inputs": [
        {
          "internalType": "uint256",
          "name": "appId",
          "type": "uint256"
        },
        {
          "internalType": "string",
          "name": "name",
          "type": "string"
        },
        {
          "internalType": "string",
          "name": "description",
          "type": "string"
        },
        {
          "internalType": "uint256",
          "name": "price",
          "type": "uint256"
        },
        {
          "internalType": "string",
          "name": "_tokenURI",
          "type": "string"
        }
      ],
      "name": "updateApp",
      "outputs": [
        {
          "internalType": "uint256",
          "name": "",
          "type": "uint256"
        }
      ],
      "stateMutability": "nonpayable",
      "type": "function"
    },
    {
      "inputs": [
        {
          "internalType": "address",
          "name": "_owner",
          "type": "address"
        }
      ],
      "name": "walletOfOwner",
      "outputs": [
        {
          "internalType": "uint256[]",
          "name": "",
          "type": "uint256[]"
        }
      ],
      "stateMutability": "view",
      "type": "function"
    },
    {
      "inputs": [],
      "name": "withdrawAll",
      "outputs": [],
      "stateMutability": "payable",
      "type": "function"
    }
  ],
  "bytecode": "0x6080604052668e1bc9bf040000600d553480156200001c57600080fd5b506040518060400160405280600781526020017f42796f61205631000000000000000000000000000000000000000000000000008152506040518060400160405280600781526020017f42594f415f5631000000000000000000000000000000000000000000000000008152508160009080519060200190620000a192919062000253565b508060019080519060200190620000ba92919062000253565b505050620000d26000801b33620000d860201b60201c565b62000368565b620000ea8282620000ee60201b60201c565b5050565b620001008282620001e060201b60201c565b620001dc576001600a600084815260200190815260200160002060000160008373ffffffffffffffffffffffffffffffffffffffff1673ffffffffffffffffffffffffffffffffffffffff16815260200190815260200160002060006101000a81548160ff021916908315150217905550620001816200024b60201b60201c565b73ffffffffffffffffffffffffffffffffffffffff168173ffffffffffffffffffffffffffffffffffffffff16837f2f8788117e7eff1d82e926ec794901d17c78024a50270940304540a733656f0d60405160405180910390a45b5050565b6000600a600084815260200190815260200160002060000160008373ffffffffffffffffffffffffffffffffffffffff1673ffffffffffffffffffffffffffffffffffffffff16815260200190815260200160002060009054906101000a900460ff16905092915050565b600033905090565b828054620002619062000303565b90600052602060002090601f016020900481019282620002855760008555620002d1565b82601f10620002a057805160ff1916838001178555620002d1565b82800160010185558215620002d1579182015b82811115620002d0578251825591602001919060010190620002b3565b5b509050620002e09190620002e4565b5090565b5b80821115620002ff576000816000905550600101620002e5565b5090565b600060028204905060018216806200031c57607f821691505b6020821081141562000333576200033262000339565b5b50919050565b7f4e487b7100000000000000000000000000000000000000000000000000000000600052602260045260246000fd5b6152f080620003786000396000f3fe6080604052600436106101d85760003560e01c80634b42a0f81161010257806395d89b4111610095578063b88d4fde11610064578063b88d4fde14610718578063c87b56dd14610741578063d547741f1461077e578063e985e9c5146107a7576101d8565b806395d89b411461067d578063a0712d68146106a8578063a217fddf146106c4578063a22cb465146106ef576101d8565b8063853828b6116100d1578063853828b6146105ce5780639103a0e0146105d85780639118f31a1461060357806391d1485414610640576101d8565b80634b42a0f8146104da5780634f6ccce7146105175780636352211e1461055457806370a0823114610591576101d8565b80632f2ff15d1161017a57806342842e0e1161014957806342842e0e146103f6578063438b63001461041f578063458f9cfb1461045c578063471c1ea91461049d576101d8565b80632f2ff15d1461033c5780632f745c591461036557806333f717fe146103a257806336568abe146103cd576101d8565b8063095ea7b3116101b6578063095ea7b31461028257806318160ddd146102ab57806323b872dd146102d6578063248a9ca3146102ff576101d8565b806301ffc9a7146101dd57806306fdde031461021a578063081812fc14610245575b600080fd5b3480156101e957600080fd5b5061020460048036038101906101ff9190613a8e565b6107e4565b6040516102119190614278565b60405180910390f35b34801561022657600080fd5b5061022f6107f6565b60405161023c91906142ae565b60405180910390f35b34801561025157600080fd5b5061026c60048036038101906102679190613ba3565b610888565b60405161027991906141ef565b60405180910390f35b34801561028e57600080fd5b506102a960048036038101906102a491906139e1565b61090d565b005b3480156102b757600080fd5b506102c0610a25565b6040516102cd9190614638565b60405180910390f35b3480156102e257600080fd5b506102fd60048036038101906102f891906138cb565b610a32565b005b34801561030b57600080fd5b5061032660048036038101906103219190613a21565b610a92565b6040516103339190614293565b60405180910390f35b34801561034857600080fd5b50610363600480360381019061035e9190613a4e565b610ab2565b005b34801561037157600080fd5b5061038c600480360381019061038791906139e1565b610adb565b6040516103999190614638565b60405180910390f35b3480156103ae57600080fd5b506103b7610b80565b6040516103c49190614256565b60405180910390f35b3480156103d957600080fd5b506103f460048036038101906103ef9190613a4e565b610c36565b005b34801561040257600080fd5b5061041d600480360381019061041891906138cb565b610cb9565b005b34801561042b57600080fd5b506104466004803603810190610441919061385e565b610cd9565b6040516104539190614256565b60405180910390f35b34801561046857600080fd5b50610483600480360381019061047e9190613ba3565b610de3565b6040516104949594939291906142d0565b60405180910390f35b3480156104a957600080fd5b506104c460048036038101906104bf9190613bd0565b6110b4565b6040516104d19190614638565b60405180910390f35b3480156104e657600080fd5b5061050160048036038101906104fc9190613ae8565b611545565b60405161050e9190614638565b60405180910390f35b34801561052357600080fd5b5061053e60048036038101906105399190613ba3565b6116df565b60405161054b9190614638565b60405180910390f35b34801561056057600080fd5b5061057b60048036038101906105769190613ba3565b611750565b60405161058891906141ef565b60405180910390f35b34801561059d57600080fd5b506105b860048036038101906105b3919061385e565b611802565b6040516105c59190614638565b60405180910390f35b6105d66118ba565b005b3480156105e457600080fd5b506105ed611946565b6040516105fa9190614293565b60405180910390f35b34801561060f57600080fd5b5061062a60048036038101906106259190613ba3565b61196a565b6040516106379190614638565b60405180910390f35b34801561064c57600080fd5b5061066760048036038101906106629190613a4e565b611987565b6040516106749190614278565b60405180910390f35b34801561068957600080fd5b506106926119f2565b60405161069f91906142ae565b60405180910390f35b6106c260048036038101906106bd9190613ba3565b611a84565b005b3480156106d057600080fd5b506106d9611bdc565b6040516106e69190614293565b60405180910390f35b3480156106fb57600080fd5b50610716600480360381019061071191906139a1565b611be3565b005b34801561072457600080fd5b5061073f600480360381019061073a919061391e565b611d64565b005b34801561074d57600080fd5b5061076860048036038101906107639190613ba3565b611dc6565b60405161077591906142ae565b60405180910390f35b34801561078a57600080fd5b506107a560048036038101906107a09190613a4e565b611dd8565b005b3480156107b357600080fd5b506107ce60048036038101906107c9919061388b565b611e01565b6040516107db9190614278565b60405180910390f35b60006107ef82611e95565b9050919050565b60606000805461080590614955565b80601f016020809104026020016040519081016040528092919081815260200182805461083190614955565b801561087e5780601f106108535761010080835404028352916020019161087e565b820191906000526020600020905b81548152906001019060200180831161086157829003601f168201915b5050505050905090565b600061089382611f0f565b6108d2576040517f08c379a00000000000000000000000000000000000000000000000000000000081526004016108c990614558565b60405180910390fd5b6004600083815260200190815260200160002060009054906101000a900473ffffffffffffffffffffffffffffffffffffffff169050919050565b600061091882611750565b90508073ffffffffffffffffffffffffffffffffffffffff168373ffffffffffffffffffffffffffffffffffffffff161415610989576040517f08c379a0000000000000000000000000000000000000000000000000000000008152600401610980906145b8565b60405180910390fd5b8073ffffffffffffffffffffffffffffffffffffffff166109a8611f7b565b73ffffffffffffffffffffffffffffffffffffffff1614806109d757506109d6816109d1611f7b565b611e01565b5b610a16576040517f08c379a0000000000000000000000000000000000000000000000000000000008152600401610a0d90614458565b60405180910390fd5b610a208383611f83565b505050565b6000600880549050905090565b610a43610a3d611f7b565b8261203c565b610a82576040517f08c379a0000000000000000000000000000000000000000000000000000000008152600401610a79906145d8565b60405180910390fd5b610a8d83838361211a565b505050565b6000600a6000838152602001908152602001600020600101549050919050565b610abb82610a92565b610acc81610ac7611f7b565b612376565b610ad68383612413565b505050565b6000610ae683611802565b8210610b27576040517f08c379a0000000000000000000000000000000000000000000000000000000008152600401610b1e90614358565b60405180910390fd5b600660008473ffffffffffffffffffffffffffffffffffffffff1673ffffffffffffffffffffffffffffffffffffffff168152602001908152602001600020600083815260200190815260200160002054905092915050565b60606000610b8e600c6124f4565b67ffffffffffffffff811115610ba757610ba6614b1d565b5b604051908082528060200260200182016040528015610bd55781602001602082028036833780820191505090505b5090506000600190505b610be9600c6124f4565b8111610c2e578082600183610bfe9190614837565b81518110610c0f57610c0e614aee565b5b6020026020010181815250508080610c26906149b8565b915050610bdf565b508091505090565b610c3e611f7b565b73ffffffffffffffffffffffffffffffffffffffff168173ffffffffffffffffffffffffffffffffffffffff1614610cab576040517f08c379a0000000000000000000000000000000000000000000000000000000008152600401610ca290614618565b60405180910390fd5b610cb58282612502565b5050565b610cd483838360405180602001604052806000815250611d64565b505050565b60606000610ce683611802565b90506000811415610d4357600067ffffffffffffffff811115610d0c57610d0b614b1d565b5b604051908082528060200260200182016040528015610d3a5781602001602082028036833780820191505090505b50915050610dde565b60008167ffffffffffffffff811115610d5f57610d5e614b1d565b5b604051908082528060200260200182016040528015610d8d5781602001602082028036833780820191505090505b50905060005b82811015610dd757610da58582610adb565b828281518110610db857610db7614aee565b5b6020026020010181815250508080610dcf906149b8565b915050610d93565b5080925050505b919050565b60608060606000806000600e6000888152602001908152602001600020600001541415610e45576040517f08c379a0000000000000000000000000000000000000000000000000000000008152600401610e3c90614378565b60405180910390fd5b6000600e60008881526020019081526020016000206040518060c001604052908160008201548152602001600182018054610e7f90614955565b80601f0160208091040260200160405190810160405280929190818152602001828054610eab90614955565b8015610ef85780601f10610ecd57610100808354040283529160200191610ef8565b820191906000526020600020905b815481529060010190602001808311610edb57829003601f168201915b50505050508152602001600282018054610f1190614955565b80601f0160208091040260200160405190810160405280929190818152602001828054610f3d90614955565b8015610f8a5780601f10610f5f57610100808354040283529160200191610f8a565b820191906000526020600020905b815481529060010190602001808311610f6d57829003601f168201915b5050505050815260200160038201548152602001600482018054610fad90614955565b80601f0160208091040260200160405190810160405280929190818152602001828054610fd990614955565b80156110265780601f10610ffb57610100808354040283529160200191611026565b820191906000526020600020905b81548152906001019060200180831161100957829003601f168201915b505050505081526020016005820160009054906101000a900473ffffffffffffffffffffffffffffffffffffffff1673ffffffffffffffffffffffffffffffffffffffff1673ffffffffffffffffffffffffffffffffffffffff168152505090508060200151816040015182608001518360a001518460600151955095509550955095505091939590929450565b60006110e07f4504b9dfd7400a1522f49a8b4a100552da9236849581fd59b7363eb48c6a474c33611987565b61111f576040517f08c379a000000000000000000000000000000000000000000000000000000000815260040161111690614398565b60405180910390fd5b6000600e6000888152602001908152602001600020600001541415611179576040517f08c379a000000000000000000000000000000000000000000000000000000000815260040161117090614378565b60405180910390fd5b6000600e60008881526020019081526020016000206040518060c0016040529081600082015481526020016001820180546111b390614955565b80601f01602080910402602001604051908101604052809291908181526020018280546111df90614955565b801561122c5780601f106112015761010080835404028352916020019161122c565b820191906000526020600020905b81548152906001019060200180831161120f57829003601f168201915b5050505050815260200160028201805461124590614955565b80601f016020809104026020016040519081016040528092919081815260200182805461127190614955565b80156112be5780601f10611293576101008083540402835291602001916112be565b820191906000526020600020905b8154815290600101906020018083116112a157829003601f168201915b50505050508152602001600382015481526020016004820180546112e190614955565b80601f016020809104026020016040519081016040528092919081815260200182805461130d90614955565b801561135a5780601f1061132f5761010080835404028352916020019161135a565b820191906000526020600020905b81548152906001019060200180831161133d57829003601f168201915b505050505081526020016005820160009054906101000a900473ffffffffffffffffffffffffffffffffffffffff1673ffffffffffffffffffffffffffffffffffffffff1673ffffffffffffffffffffffffffffffffffffffff168152505090503373ffffffffffffffffffffffffffffffffffffffff168160a0015173ffffffffffffffffffffffffffffffffffffffff161461142d576040517f08c379a000000000000000000000000000000000000000000000000000000000815260040161142490614518565b60405180910390fd5b6040518060c001604052808881526020018781526020018681526020018581526020018481526020013373ffffffffffffffffffffffffffffffffffffffff16815250600e60008981526020019081526020016000206000820151816000015560208201518160010190805190602001906114a992919061365d565b5060408201518160020190805190602001906114c692919061365d565b506060820151816003015560808201518160040190805190602001906114ed92919061365d565b5060a08201518160050160006101000a81548173ffffffffffffffffffffffffffffffffffffffff021916908373ffffffffffffffffffffffffffffffffffffffff1602179055509050508691505095945050505050565b60006115717f4504b9dfd7400a1522f49a8b4a100552da9236849581fd59b7363eb48c6a474c33611987565b6115b0576040517f08c379a00000000000000000000000000000000000000000000000000000000081526004016115a790614398565b60405180910390fd5b6115ba600c6125e4565b60006115c6600c6124f4565b90506040518060c001604052808281526020018781526020018681526020018581526020018481526020013373ffffffffffffffffffffffffffffffffffffffff16815250600e600083815260200190815260200160002060008201518160000155602082015181600101908051906020019061164492919061365d565b50604082015181600201908051906020019061166192919061365d565b5060608201518160030155608082015181600401908051906020019061168892919061365d565b5060a08201518160050160006101000a81548173ffffffffffffffffffffffffffffffffffffffff021916908373ffffffffffffffffffffffffffffffffffffffff16021790555090505080915050949350505050565b60006116e9610a25565b821061172a576040517f08c379a0000000000000000000000000000000000000000000000000000000008152600401611721906145f8565b60405180910390fd5b6008828154811061173e5761173d614aee565b5b90600052602060002001549050919050565b6000806002600084815260200190815260200160002060009054906101000a900473ffffffffffffffffffffffffffffffffffffffff169050600073ffffffffffffffffffffffffffffffffffffffff168173ffffffffffffffffffffffffffffffffffffffff1614156117f9576040517f08c379a00000000000000000000000000000000000000000000000000000000081526004016117f090614498565b60405180910390fd5b80915050919050565b60008073ffffffffffffffffffffffffffffffffffffffff168273ffffffffffffffffffffffffffffffffffffffff161415611873576040517f08c379a000000000000000000000000000000000000000000000000000000000815260040161186a90614478565b60405180910390fd5b600360008373ffffffffffffffffffffffffffffffffffffffff1673ffffffffffffffffffffffffffffffffffffffff168152602001908152602001600020549050919050565b6118c76000801b33611987565b611906576040517f08c379a00000000000000000000000000000000000000000000000000000000081526004016118fd906144d8565b60405180910390fd5b3373ffffffffffffffffffffffffffffffffffffffff166108fc479081150290604051600060405180830381858888f1935050505061194457600080fd5b565b7f4504b9dfd7400a1522f49a8b4a100552da9236849581fd59b7363eb48c6a474c81565b6000600f6000838152602001908152602001600020549050919050565b6000600a600084815260200190815260200160002060000160008373ffffffffffffffffffffffffffffffffffffffff1673ffffffffffffffffffffffffffffffffffffffff16815260200190815260200160002060009054906101000a900460ff16905092915050565b606060018054611a0190614955565b80601f0160208091040260200160405190810160405280929190818152602001828054611a2d90614955565b8015611a7a5780601f10611a4f57610100808354040283529160200191611a7a565b820191906000526020600020905b815481529060010190602001808311611a5d57829003601f168201915b5050505050905090565b6000600e6000838152602001908152602001600020600001541415611ade576040517f08c379a0000000000000000000000000000000000000000000000000000000008152600401611ad590614378565b60405180910390fd5b6000611ae8610a25565b90506000600182611af99190614756565b9050611b0533826125fa565b611b0e81611f0f565b611b1757600080fd5b82600f600083815260200190815260200160002081905550611bd781600e60008681526020019081526020016000206004018054611b5490614955565b80601f0160208091040260200160405190810160405280929190818152602001828054611b8090614955565b8015611bcd5780601f10611ba257610100808354040283529160200191611bcd565b820191906000526020600020905b815481529060010190602001808311611bb057829003601f168201915b5050505050612618565b505050565b6000801b81565b611beb611f7b565b73ffffffffffffffffffffffffffffffffffffffff168273ffffffffffffffffffffffffffffffffffffffff161415611c59576040517f08c379a0000000000000000000000000000000000000000000000000000000008152600401611c5090614418565b60405180910390fd5b8060056000611c66611f7b565b73ffffffffffffffffffffffffffffffffffffffff1673ffffffffffffffffffffffffffffffffffffffff16815260200190815260200160002060008473ffffffffffffffffffffffffffffffffffffffff1673ffffffffffffffffffffffffffffffffffffffff16815260200190815260200160002060006101000a81548160ff0219169083151502179055508173ffffffffffffffffffffffffffffffffffffffff16611d13611f7b565b73ffffffffffffffffffffffffffffffffffffffff167f17307eab39ab6107e8899845ad3d59bd9653f200f220920489ca2b5937696c3183604051611d589190614278565b60405180910390a35050565b611d75611d6f611f7b565b8361203c565b611db4576040517f08c379a0000000000000000000000000000000000000000000000000000000008152600401611dab906145d8565b60405180910390fd5b611dc08484848461268c565b50505050565b6060611dd1826126e8565b9050919050565b611de182610a92565b611df281611ded611f7b565b612376565b611dfc8383612502565b505050565b6000600560008473ffffffffffffffffffffffffffffffffffffffff1673ffffffffffffffffffffffffffffffffffffffff16815260200190815260200160002060008373ffffffffffffffffffffffffffffffffffffffff1673ffffffffffffffffffffffffffffffffffffffff16815260200190815260200160002060009054906101000a900460ff16905092915050565b60007f7965db0b000000000000000000000000000000000000000000000000000000007bffffffffffffffffffffffffffffffffffffffffffffffffffffffff1916827bffffffffffffffffffffffffffffffffffffffffffffffffffffffff19161480611f085750611f078261283a565b5b9050919050565b60008073ffffffffffffffffffffffffffffffffffffffff166002600084815260200190815260200160002060009054906101000a900473ffffffffffffffffffffffffffffffffffffffff1673ffffffffffffffffffffffffffffffffffffffff1614159050919050565b600033905090565b816004600083815260200190815260200160002060006101000a81548173ffffffffffffffffffffffffffffffffffffffff021916908373ffffffffffffffffffffffffffffffffffffffff160217905550808273ffffffffffffffffffffffffffffffffffffffff16611ff683611750565b73ffffffffffffffffffffffffffffffffffffffff167f8c5be1e5ebec7d5bd14f71427d1e84f3dd0314c0f7b2291e5b200ac8c7c3b92560405160405180910390a45050565b600061204782611f0f565b612086576040517f08c379a000000000000000000000000000000000000000000000000000000000815260040161207d90614438565b60405180910390fd5b600061209183611750565b90508073ffffffffffffffffffffffffffffffffffffffff168473ffffffffffffffffffffffffffffffffffffffff16148061210057508373ffffffffffffffffffffffffffffffffffffffff166120e884610888565b73ffffffffffffffffffffffffffffffffffffffff16145b8061211157506121108185611e01565b5b91505092915050565b8273ffffffffffffffffffffffffffffffffffffffff1661213a82611750565b73ffffffffffffffffffffffffffffffffffffffff1614612190576040517f08c379a000000000000000000000000000000000000000000000000000000000815260040161218790614578565b60405180910390fd5b600073ffffffffffffffffffffffffffffffffffffffff168273ffffffffffffffffffffffffffffffffffffffff161415612200576040517f08c379a00000000000000000000000000000000000000000000000000000000081526004016121f7906143f8565b60405180910390fd5b61220b8383836128b4565b612216600082611f83565b6001600360008573ffffffffffffffffffffffffffffffffffffffff1673ffffffffffffffffffffffffffffffffffffffff16815260200190815260200160002060008282546122669190614837565b925050819055506001600360008473ffffffffffffffffffffffffffffffffffffffff1673ffffffffffffffffffffffffffffffffffffffff16815260200190815260200160002060008282546122bd9190614756565b92505081905550816002600083815260200190815260200160002060006101000a81548173ffffffffffffffffffffffffffffffffffffffff021916908373ffffffffffffffffffffffffffffffffffffffff160217905550808273ffffffffffffffffffffffffffffffffffffffff168473ffffffffffffffffffffffffffffffffffffffff167fddf252ad1be2c89b69c2b068fc378daa952ba7f163c4a11628f55a4df523b3ef60405160405180910390a4505050565b6123808282611987565b61240f576123a58173ffffffffffffffffffffffffffffffffffffffff1660146128c4565b6123b38360001c60206128c4565b6040516020016123c49291906141b5565b6040516020818303038152906040526040517f08c379a000000000000000000000000000000000000000000000000000000000815260040161240691906142ae565b60405180910390fd5b5050565b61241d8282611987565b6124f0576001600a600084815260200190815260200160002060000160008373ffffffffffffffffffffffffffffffffffffffff1673ffffffffffffffffffffffffffffffffffffffff16815260200190815260200160002060006101000a81548160ff021916908315150217905550612495611f7b565b73ffffffffffffffffffffffffffffffffffffffff168173ffffffffffffffffffffffffffffffffffffffff16837f2f8788117e7eff1d82e926ec794901d17c78024a50270940304540a733656f0d60405160405180910390a45b5050565b600081600001549050919050565b61250c8282611987565b156125e0576000600a600084815260200190815260200160002060000160008373ffffffffffffffffffffffffffffffffffffffff1673ffffffffffffffffffffffffffffffffffffffff16815260200190815260200160002060006101000a81548160ff021916908315150217905550612585611f7b565b73ffffffffffffffffffffffffffffffffffffffff168173ffffffffffffffffffffffffffffffffffffffff16837ff6391f5c32d9c69d2a47ea670b442974b53935d1edc7fd64eb21e047a839171b60405160405180910390a45b5050565b6001816000016000828254019250508190555050565b612614828260405180602001604052806000815250612b00565b5050565b61262182611f0f565b612660576040517f08c379a0000000000000000000000000000000000000000000000000000000008152600401612657906144b8565b60405180910390fd5b80600b6000848152602001908152602001600020908051906020019061268792919061365d565b505050565b61269784848461211a565b6126a384848484612b5b565b6126e2576040517f08c379a00000000000000000000000000000000000000000000000000000000081526004016126d9906143b8565b60405180910390fd5b50505050565b60606126f382611f0f565b612732576040517f08c379a000000000000000000000000000000000000000000000000000000000815260040161272990614538565b60405180910390fd5b6000600b6000848152602001908152602001600020805461275290614955565b80601f016020809104026020016040519081016040528092919081815260200182805461277e90614955565b80156127cb5780601f106127a0576101008083540402835291602001916127cb565b820191906000526020600020905b8154815290600101906020018083116127ae57829003601f168201915b5050505050905060006127dc612cf2565b90506000815114156127f2578192505050612835565b60008251111561282757808260405160200161280f929190614191565b60405160208183030381529060405292505050612835565b61283084612d09565b925050505b919050565b60007f780e9d63000000000000000000000000000000000000000000000000000000007bffffffffffffffffffffffffffffffffffffffffffffffffffffffff1916827bffffffffffffffffffffffffffffffffffffffffffffffffffffffff191614806128ad57506128ac82612db0565b5b9050919050565b6128bf838383612e92565b505050565b6060600060028360026128d791906147dd565b6128e19190614756565b67ffffffffffffffff8111156128fa576128f9614b1d565b5b6040519080825280601f01601f19166020018201604052801561292c5781602001600182028036833780820191505090505b5090507f30000000000000000000000000000000000000000000000000000000000000008160008151811061296457612963614aee565b5b60200101907effffffffffffffffffffffffffffffffffffffffffffffffffffffffffffff1916908160001a9053507f7800000000000000000000000000000000000000000000000000000000000000816001815181106129c8576129c7614aee565b5b60200101907effffffffffffffffffffffffffffffffffffffffffffffffffffffffffffff1916908160001a90535060006001846002612a0891906147dd565b612a129190614756565b90505b6001811115612ab2577f3031323334353637383961626364656600000000000000000000000000000000600f861660108110612a5457612a53614aee565b5b1a60f81b828281518110612a6b57612a6a614aee565b5b60200101907effffffffffffffffffffffffffffffffffffffffffffffffffffffffffffff1916908160001a905350600485901c945080612aab9061492b565b9050612a15565b5060008414612af6576040517f08c379a0000000000000000000000000000000000000000000000000000000008152600401612aed90614338565b60405180910390fd5b8091505092915050565b612b0a8383612fa6565b612b176000848484612b5b565b612b56576040517f08c379a0000000000000000000000000000000000000000000000000000000008152600401612b4d906143b8565b60405180910390fd5b505050565b6000612b7c8473ffffffffffffffffffffffffffffffffffffffff16613174565b15612ce5578373ffffffffffffffffffffffffffffffffffffffff1663150b7a02612ba5611f7b565b8786866040518563ffffffff1660e01b8152600401612bc7949392919061420a565b602060405180830381600087803b158015612be157600080fd5b505af1925050508015612c1257506040513d601f19601f82011682018060405250810190612c0f9190613abb565b60015b612c95573d8060008114612c42576040519150601f19603f3d011682016040523d82523d6000602084013e612c47565b606091505b50600081511415612c8d576040517f08c379a0000000000000000000000000000000000000000000000000000000008152600401612c84906143b8565b60405180910390fd5b805181602001fd5b63150b7a0260e01b7bffffffffffffffffffffffffffffffffffffffffffffffffffffffff1916817bffffffffffffffffffffffffffffffffffffffffffffffffffffffff191614915050612cea565b600190505b949350505050565b606060405180602001604052806000815250905090565b6060612d1482611f0f565b612d53576040517f08c379a0000000000000000000000000000000000000000000000000000000008152600401612d4a90614598565b60405180910390fd5b6000612d5d612cf2565b90506000815111612d7d5760405180602001604052806000815250612da8565b80612d8784613187565b604051602001612d98929190614191565b6040516020818303038152906040525b915050919050565b60007f80ac58cd000000000000000000000000000000000000000000000000000000007bffffffffffffffffffffffffffffffffffffffffffffffffffffffff1916827bffffffffffffffffffffffffffffffffffffffffffffffffffffffff19161480612e7b57507f5b5e139f000000000000000000000000000000000000000000000000000000007bffffffffffffffffffffffffffffffffffffffffffffffffffffffff1916827bffffffffffffffffffffffffffffffffffffffffffffffffffffffff1916145b80612e8b5750612e8a826132e8565b5b9050919050565b612e9d838383613352565b600073ffffffffffffffffffffffffffffffffffffffff168373ffffffffffffffffffffffffffffffffffffffff161415612ee057612edb81613357565b612f1f565b8173ffffffffffffffffffffffffffffffffffffffff168373ffffffffffffffffffffffffffffffffffffffff1614612f1e57612f1d83826133a0565b5b5b600073ffffffffffffffffffffffffffffffffffffffff168273ffffffffffffffffffffffffffffffffffffffff161415612f6257612f5d8161350d565b612fa1565b8273ffffffffffffffffffffffffffffffffffffffff168273ffffffffffffffffffffffffffffffffffffffff1614612fa057612f9f82826135de565b5b5b505050565b600073ffffffffffffffffffffffffffffffffffffffff168273ffffffffffffffffffffffffffffffffffffffff161415613016576040517f08c379a000000000000000000000000000000000000000000000000000000000815260040161300d906144f8565b60405180910390fd5b61301f81611f0f565b1561305f576040517f08c379a0000000000000000000000000000000000000000000000000000000008152600401613056906143d8565b60405180910390fd5b61306b600083836128b4565b6001600360008473ffffffffffffffffffffffffffffffffffffffff1673ffffffffffffffffffffffffffffffffffffffff16815260200190815260200160002060008282546130bb9190614756565b92505081905550816002600083815260200190815260200160002060006101000a81548173ffffffffffffffffffffffffffffffffffffffff021916908373ffffffffffffffffffffffffffffffffffffffff160217905550808273ffffffffffffffffffffffffffffffffffffffff16600073ffffffffffffffffffffffffffffffffffffffff167fddf252ad1be2c89b69c2b068fc378daa952ba7f163c4a11628f55a4df523b3ef60405160405180910390a45050565b600080823b905060008111915050919050565b606060008214156131cf576040518060400160405280600181526020017f300000000000000000000000000000000000000000000000000000000000000081525090506132e3565b600082905060005b600082146132015780806131ea906149b8565b915050600a826131fa91906147ac565b91506131d7565b60008167ffffffffffffffff81111561321d5761321c614b1d565b5b6040519080825280601f01601f19166020018201604052801561324f5781602001600182028036833780820191505090505b5090505b600085146132dc576001826132689190614837565b9150600a856132779190614a01565b60306132839190614756565b60f81b81838151811061329957613298614aee565b5b60200101907effffffffffffffffffffffffffffffffffffffffffffffffffffffffffffff1916908160001a905350600a856132d591906147ac565b9450613253565b8093505050505b919050565b60007f01ffc9a7000000000000000000000000000000000000000000000000000000007bffffffffffffffffffffffffffffffffffffffffffffffffffffffff1916827bffffffffffffffffffffffffffffffffffffffffffffffffffffffff1916149050919050565b505050565b6008805490506009600083815260200190815260200160002081905550600881908060018154018082558091505060019003906000526020600020016000909190919091505550565b600060016133ad84611802565b6133b79190614837565b905060006007600084815260200190815260200160002054905081811461349c576000600660008673ffffffffffffffffffffffffffffffffffffffff1673ffffffffffffffffffffffffffffffffffffffff168152602001908152602001600020600084815260200190815260200160002054905080600660008773ffffffffffffffffffffffffffffffffffffffff1673ffffffffffffffffffffffffffffffffffffffff168152602001908152602001600020600084815260200190815260200160002081905550816007600083815260200190815260200160002081905550505b6007600084815260200190815260200160002060009055600660008573ffffffffffffffffffffffffffffffffffffffff1673ffffffffffffffffffffffffffffffffffffffff16815260200190815260200160002060008381526020019081526020016000206000905550505050565b600060016008805490506135219190614837565b905060006009600084815260200190815260200160002054905060006008838154811061355157613550614aee565b5b90600052602060002001549050806008838154811061357357613572614aee565b5b9060005260206000200181905550816009600083815260200190815260200160002081905550600960008581526020019081526020016000206000905560088054806135c2576135c1614abf565b5b6001900381819060005260206000200160009055905550505050565b60006135e983611802565b905081600660008573ffffffffffffffffffffffffffffffffffffffff1673ffffffffffffffffffffffffffffffffffffffff168152602001908152602001600020600083815260200190815260200160002081905550806007600084815260200190815260200160002081905550505050565b82805461366990614955565b90600052602060002090601f01602090048101928261368b57600085556136d2565b82601f106136a457805160ff19168380011785556136d2565b828001600101855582156136d2579182015b828111156136d15782518255916020019190600101906136b6565b5b5090506136df91906136e3565b5090565b5b808211156136fc5760008160009055506001016136e4565b5090565b600061371361370e84614678565b614653565b90508281526020810184848401111561372f5761372e614b51565b5b61373a8482856148e9565b509392505050565b6000613755613750846146a9565b614653565b90508281526020810184848401111561377157613770614b51565b5b61377c8482856148e9565b509392505050565b60008135905061379381615247565b92915050565b6000813590506137a88161525e565b92915050565b6000813590506137bd81615275565b92915050565b6000813590506137d28161528c565b92915050565b6000815190506137e78161528c565b92915050565b600082601f83011261380257613801614b4c565b5b8135613812848260208601613700565b91505092915050565b600082601f8301126138305761382f614b4c565b5b8135613840848260208601613742565b91505092915050565b600081359050613858816152a3565b92915050565b60006020828403121561387457613873614b5b565b5b600061388284828501613784565b91505092915050565b600080604083850312156138a2576138a1614b5b565b5b60006138b085828601613784565b92505060206138c185828601613784565b9150509250929050565b6000806000606084860312156138e4576138e3614b5b565b5b60006138f286828701613784565b935050602061390386828701613784565b925050604061391486828701613849565b9150509250925092565b6000806000806080858703121561393857613937614b5b565b5b600061394687828801613784565b945050602061395787828801613784565b935050604061396887828801613849565b925050606085013567ffffffffffffffff81111561398957613988614b56565b5b613995878288016137ed565b91505092959194509250565b600080604083850312156139b8576139b7614b5b565b5b60006139c685828601613784565b92505060206139d785828601613799565b9150509250929050565b600080604083850312156139f8576139f7614b5b565b5b6000613a0685828601613784565b9250506020613a1785828601613849565b9150509250929050565b600060208284031215613a3757613a36614b5b565b5b6000613a45848285016137ae565b91505092915050565b60008060408385031215613a6557613a64614b5b565b5b6000613a73858286016137ae565b9250506020613a8485828601613784565b9150509250929050565b600060208284031215613aa457613aa3614b5b565b5b6000613ab2848285016137c3565b91505092915050565b600060208284031215613ad157613ad0614b5b565b5b6000613adf848285016137d8565b91505092915050565b60008060008060808587031215613b0257613b01614b5b565b5b600085013567ffffffffffffffff811115613b2057613b1f614b56565b5b613b2c8782880161381b565b945050602085013567ffffffffffffffff811115613b4d57613b4c614b56565b5b613b598782880161381b565b9350506040613b6a87828801613849565b925050606085013567ffffffffffffffff811115613b8b57613b8a614b56565b5b613b978782880161381b565b91505092959194509250565b600060208284031215613bb957613bb8614b5b565b5b6000613bc784828501613849565b91505092915050565b600080600080600060a08688031215613bec57613beb614b5b565b5b6000613bfa88828901613849565b955050602086013567ffffffffffffffff811115613c1b57613c1a614b56565b5b613c278882890161381b565b945050604086013567ffffffffffffffff811115613c4857613c47614b56565b5b613c548882890161381b565b9350506060613c6588828901613849565b925050608086013567ffffffffffffffff811115613c8657613c85614b56565b5b613c928882890161381b565b9150509295509295909350565b6000613cab8383614173565b60208301905092915050565b613cc08161486b565b82525050565b6000613cd1826146ea565b613cdb8185614718565b9350613ce6836146da565b8060005b83811015613d17578151613cfe8882613c9f565b9750613d098361470b565b925050600181019050613cea565b5085935050505092915050565b613d2d8161487d565b82525050565b613d3c81614889565b82525050565b6000613d4d826146f5565b613d578185614729565b9350613d678185602086016148f8565b613d7081614b60565b840191505092915050565b6000613d8682614700565b613d90818561473a565b9350613da08185602086016148f8565b613da981614b60565b840191505092915050565b6000613dbf82614700565b613dc9818561474b565b9350613dd98185602086016148f8565b80840191505092915050565b6000613df260208361473a565b9150613dfd82614b71565b602082019050919050565b6000613e15602b8361473a565b9150613e2082614b9a565b604082019050919050565b6000613e3860118361473a565b9150613e4382614be9565b602082019050919050565b6000613e5b60248361473a565b9150613e6682614c12565b604082019050919050565b6000613e7e60328361473a565b9150613e8982614c61565b604082019050919050565b6000613ea1601c8361473a565b9150613eac82614cb0565b602082019050919050565b6000613ec460248361473a565b9150613ecf82614cd9565b604082019050919050565b6000613ee760198361473a565b9150613ef282614d28565b602082019050919050565b6000613f0a602c8361473a565b9150613f1582614d51565b604082019050919050565b6000613f2d60388361473a565b9150613f3882614da0565b604082019050919050565b6000613f50602a8361473a565b9150613f5b82614def565b604082019050919050565b6000613f7360298361473a565b9150613f7e82614e3e565b604082019050919050565b6000613f96602e8361473a565b9150613fa182614e8d565b604082019050919050565b6000613fb9601c8361473a565b9150613fc482614edc565b602082019050919050565b6000613fdc60208361473a565b9150613fe782614f05565b602082019050919050565b6000613fff60218361473a565b915061400a82614f2e565b604082019050919050565b600061402260318361473a565b915061402d82614f7d565b604082019050919050565b6000614045602c8361473a565b915061405082614fcc565b604082019050919050565b600061406860298361473a565b91506140738261501b565b604082019050919050565b600061408b602f8361473a565b91506140968261506a565b604082019050919050565b60006140ae60218361473a565b91506140b9826150b9565b604082019050919050565b60006140d160318361473a565b91506140dc82615108565b604082019050919050565b60006140f4602c8361473a565b91506140ff82615157565b604082019050919050565b600061411760178361474b565b9150614122826151a6565b601782019050919050565b600061413a60118361474b565b9150614145826151cf565b601182019050919050565b600061415d602f8361473a565b9150614168826151f8565b604082019050919050565b61417c816148df565b82525050565b61418b816148df565b82525050565b600061419d8285613db4565b91506141a98284613db4565b91508190509392505050565b60006141c08261410a565b91506141cc8285613db4565b91506141d78261412d565b91506141e38284613db4565b91508190509392505050565b60006020820190506142046000830184613cb7565b92915050565b600060808201905061421f6000830187613cb7565b61422c6020830186613cb7565b6142396040830185614182565b818103606083015261424b8184613d42565b905095945050505050565b600060208201905081810360008301526142708184613cc6565b905092915050565b600060208201905061428d6000830184613d24565b92915050565b60006020820190506142a86000830184613d33565b92915050565b600060208201905081810360008301526142c88184613d7b565b905092915050565b600060a08201905081810360008301526142ea8188613d7b565b905081810360208301526142fe8187613d7b565b905081810360408301526143128186613d7b565b90506143216060830185613cb7565b61432e6080830184614182565b9695505050505050565b6000602082019050818103600083015261435181613de5565b9050919050565b6000602082019050818103600083015261437181613e08565b9050919050565b6000602082019050818103600083015261439181613e2b565b9050919050565b600060208201905081810360008301526143b181613e4e565b9050919050565b600060208201905081810360008301526143d181613e71565b9050919050565b600060208201905081810360008301526143f181613e94565b9050919050565b6000602082019050818103600083015261441181613eb7565b9050919050565b6000602082019050818103600083015261443181613eda565b9050919050565b6000602082019050818103600083015261445181613efd565b9050919050565b6000602082019050818103600083015261447181613f20565b9050919050565b6000602082019050818103600083015261449181613f43565b9050919050565b600060208201905081810360008301526144b181613f66565b9050919050565b600060208201905081810360008301526144d181613f89565b9050919050565b600060208201905081810360008301526144f181613fac565b9050919050565b6000602082019050818103600083015261451181613fcf565b9050919050565b6000602082019050818103600083015261453181613ff2565b9050919050565b6000602082019050818103600083015261455181614015565b9050919050565b6000602082019050818103600083015261457181614038565b9050919050565b600060208201905081810360008301526145918161405b565b9050919050565b600060208201905081810360008301526145b18161407e565b9050919050565b600060208201905081810360008301526145d1816140a1565b9050919050565b600060208201905081810360008301526145f1816140c4565b9050919050565b60006020820190508181036000830152614611816140e7565b9050919050565b6000602082019050818103600083015261463181614150565b9050919050565b600060208201905061464d6000830184614182565b92915050565b600061465d61466e565b90506146698282614987565b919050565b6000604051905090565b600067ffffffffffffffff82111561469357614692614b1d565b5b61469c82614b60565b9050602081019050919050565b600067ffffffffffffffff8211156146c4576146c3614b1d565b5b6146cd82614b60565b9050602081019050919050565b6000819050602082019050919050565b600081519050919050565b600081519050919050565b600081519050919050565b6000602082019050919050565b600082825260208201905092915050565b600082825260208201905092915050565b600082825260208201905092915050565b600081905092915050565b6000614761826148df565b915061476c836148df565b9250827fffffffffffffffffffffffffffffffffffffffffffffffffffffffffffffffff038211156147a1576147a0614a32565b5b828201905092915050565b60006147b7826148df565b91506147c2836148df565b9250826147d2576147d1614a61565b5b828204905092915050565b60006147e8826148df565b91506147f3836148df565b9250817fffffffffffffffffffffffffffffffffffffffffffffffffffffffffffffffff048311821515161561482c5761482b614a32565b5b828202905092915050565b6000614842826148df565b915061484d836148df565b9250828210156148605761485f614a32565b5b828203905092915050565b6000614876826148bf565b9050919050565b60008115159050919050565b6000819050919050565b60007fffffffff0000000000000000000000000000000000000000000000000000000082169050919050565b600073ffffffffffffffffffffffffffffffffffffffff82169050919050565b6000819050919050565b82818337600083830152505050565b60005b838110156149165780820151818401526020810190506148fb565b83811115614925576000848401525b50505050565b6000614936826148df565b9150600082141561494a57614949614a32565b5b600182039050919050565b6000600282049050600182168061496d57607f821691505b6020821081141561498157614980614a90565b5b50919050565b61499082614b60565b810181811067ffffffffffffffff821117156149af576149ae614b1d565b5b80604052505050565b60006149c3826148df565b91507fffffffffffffffffffffffffffffffffffffffffffffffffffffffffffffffff8214156149f6576149f5614a32565b5b600182019050919050565b6000614a0c826148df565b9150614a17836148df565b925082614a2757614a26614a61565b5b828206905092915050565b7f4e487b7100000000000000000000000000000000000000000000000000000000600052601160045260246000fd5b7f4e487b7100000000000000000000000000000000000000000000000000000000600052601260045260246000fd5b7f4e487b7100000000000000000000000000000000000000000000000000000000600052602260045260246000fd5b7f4e487b7100000000000000000000000000000000000000000000000000000000600052603160045260246000fd5b7f4e487b7100000000000000000000000000000000000000000000000000000000600052603260045260246000fd5b7f4e487b7100000000000000000000000000000000000000000000000000000000600052604160045260246000fd5b600080fd5b600080fd5b600080fd5b600080fd5b6000601f19601f8301169050919050565b7f537472696e67733a20686578206c656e67746820696e73756666696369656e74600082015250565b7f455243373231456e756d657261626c653a206f776e657220696e646578206f7560008201527f74206f6620626f756e6473000000000000000000000000000000000000000000602082015250565b7f417070204944206d757374206578697374000000000000000000000000000000600082015250565b7f4d757374206265206120646576656c6f70657220746f2063726561746520616e60008201527f2061707000000000000000000000000000000000000000000000000000000000602082015250565b7f4552433732313a207472616e7366657220746f206e6f6e20455243373231526560008201527f63656976657220696d706c656d656e7465720000000000000000000000000000602082015250565b7f4552433732313a20746f6b656e20616c7265616479206d696e74656400000000600082015250565b7f4552433732313a207472616e7366657220746f20746865207a65726f2061646460008201527f7265737300000000000000000000000000000000000000000000000000000000602082015250565b7f4552433732313a20617070726f766520746f2063616c6c657200000000000000600082015250565b7f4552433732313a206f70657261746f7220717565727920666f72206e6f6e657860008201527f697374656e7420746f6b656e0000000000000000000000000000000000000000602082015250565b7f4552433732313a20617070726f76652063616c6c6572206973206e6f74206f7760008201527f6e6572206e6f7220617070726f76656420666f7220616c6c0000000000000000602082015250565b7f4552433732313a2062616c616e636520717565727920666f7220746865207a6560008201527f726f206164647265737300000000000000000000000000000000000000000000602082015250565b7f4552433732313a206f776e657220717565727920666f72206e6f6e657869737460008201527f656e7420746f6b656e0000000000000000000000000000000000000000000000602082015250565b7f45524337323155524953746f726167653a2055524920736574206f66206e6f6e60008201527f6578697374656e7420746f6b656e000000000000000000000000000000000000602082015250565b7f4d75737420626520616e2061646d696e20746f20776974686472617700000000600082015250565b7f4552433732313a206d696e7420746f20746865207a65726f2061646472657373600082015250565b7f596f75206d75737420626520746865206f776e6572206f66207468697320617060008201527f7000000000000000000000000000000000000000000000000000000000000000602082015250565b7f45524337323155524953746f726167653a2055524920717565727920666f722060008201527f6e6f6e6578697374656e7420746f6b656e000000000000000000000000000000602082015250565b7f4552433732313a20617070726f76656420717565727920666f72206e6f6e657860008201527f697374656e7420746f6b656e0000000000000000000000000000000000000000602082015250565b7f4552433732313a207472616e73666572206f6620746f6b656e2074686174206960008201527f73206e6f74206f776e0000000000000000000000000000000000000000000000602082015250565b7f4552433732314d657461646174613a2055524920717565727920666f72206e6f60008201527f6e6578697374656e7420746f6b656e0000000000000000000000000000000000602082015250565b7f4552433732313a20617070726f76616c20746f2063757272656e74206f776e6560008201527f7200000000000000000000000000000000000000000000000000000000000000602082015250565b7f4552433732313a207472616e736665722063616c6c6572206973206e6f74206f60008201527f776e6572206e6f7220617070726f766564000000000000000000000000000000602082015250565b7f455243373231456e756d657261626c653a20676c6f62616c20696e646578206f60008201527f7574206f6620626f756e64730000000000000000000000000000000000000000602082015250565b7f416363657373436f6e74726f6c3a206163636f756e7420000000000000000000600082015250565b7f206973206d697373696e6720726f6c6520000000000000000000000000000000600082015250565b7f416363657373436f6e74726f6c3a2063616e206f6e6c792072656e6f756e636560008201527f20726f6c657320666f722073656c660000000000000000000000000000000000602082015250565b6152508161486b565b811461525b57600080fd5b50565b6152678161487d565b811461527257600080fd5b50565b61527e81614889565b811461528957600080fd5b50565b61529581614893565b81146152a057600080fd5b50565b6152ac816148df565b81146152b757600080fd5b5056fea26469706673582212206d1e1f96a7981ff2283155936d935258895e739fa6191f3ee5d4c71aebe1597c64736f6c63430008060033",
  "linkReferences": {},
  "deployedLinkReferences": {}
}